:1000000000308A007F280000FF00030E8301A1005A
:100010007F08A0000A08A7008A01A00E0408A20019
:100020007708A3007808A4007908A5007A08A6003C
:10003000831383128C308400001C20280C18312874
:10004000220884002308F7002408F8002508F90096
:100050002608FA0027088A00210E8300FF0E7F0E73
:1000600009008A1133280030A802031C0130A902BC
:100070000130031C0230AA020030031C0130AB0225
:10008000AB08031D6C282A08003C031C6C28403078
:10009000A807423003184330A9070F300318103067
:1000A000AA07003003180130AB07AC0A2F1C6C28DC
:1000B00083168612203083128606AE0803196B2839
:1000C00083168611083083128606AE0B6B288316C2
:1000D000861183128611AD010C108A112028AB0104
:1000E0000F30AA004230A9004030A800053090002F
:1000F000C0308B0483160C1483128A1199280308CC
:100100001F398300AC01AD017830AE002F1083168B
:1001100003170908C039890003131F129F1200300A
:100120000317880083128701880189018313031351
:100130006F28831686128312861283168611831205
:100140008611831605148312051CAD288316051528
:1001500083120519AD282F14CB288316051483129A
:10016000051CC328831605158312051DC3282F10EF
:100170007830AE008316861283128612831686119B
:1001800083128611CB288316861283128612831659
:0A019000861183128611A128630076
:04400E00E12CFF3F63
:00000001FF
;PIC16F883
;CRC=DD97  CREATED="20-Jan-16 10:22"
