:1000000000308A007F280000FF00030E8301A50056
:100010007F08A4000A08AB008A01A40E0408A60009
:100020002008A7002108A8002208A9002308AA0088
:10003000831383128C308400001C20280C18312874
:10004000260884002708A0002808A1002908A2008B
:100050002A08A3002B088A00250E8300FF0E7F0EBE
:1000600009008A1133280030AC02031C0130AD02B4
:100070000130031C0230AE020030031C0130AF021D
:10008000AF08031D6C282E08003C031C6C28403070
:10009000AC07423003184330AD070F30031810305F
:1000A000AE07003003180130AF07B00A331C6C28CC
:1000B00083168612203083128606B20803196B2835
:1000C00083168611083083128606B20B6B288316BE
:1000D000861183128611B1010C108A112028AF01FC
:1000E0000F30AE004230AD004030AC0085309000A3
:1000F000C0308B0483160C1483128A118F280308D6
:100100001F398300B001B1017830B200331083167B
:100110001F149F141F159F11831383126F288316BA
:100120008612831286128316861183128611831615
:1001300005148312051CA3288316051583120519BF
:10014000A3283314C128831605148312051CB9286B
:10015000831605158312051DB92833107830B200B7
:1001600083168612831286128316861183128611D5
:10017000C128831686128312861283168611831273
:06018000861197286300C0
:02400E00313F40
:00000001FF
;PIC16F873
;CRC=AF8A  CREATED="20-Jan-16 10:35"
